:020000040800F2
:100000006024002045710008BD700008BF70000822
:10001000C1700008C3700008C5700008000000002F
:10002000000000000000000000000000C770000891
:10003000C970000800000000CB700008CD700008F7
:100040006F71000873710008777100087B710008F8
:100050007F71000883710008877100088B710008A8
:100060008F71000893710008977100089B71000858
:100070009F710008A3710008A7710008AB71000808
:10008000AF710008B3710008B7710008BB710008B8
:10009000BF710008C3710008C7710008CB71000868
:1000A000CF710008D3710008D7710008DB71000818
:1000B000DF710008E3710008E7710008EB710008C8
:1000C000EF710008F3710008F7710008FB71000878
:1000D000FF71000803720008077200080B72000825
:1000E0000F72000813720008177200081B720008D4
:1000F0001F72000823720008277200082B72000884
:100100002F72000833720008377200083B72000833
:100110003F72000843720008477200084B720008E3
:100120004F72000853720008577200085B72000893
:100130005F72000863720008677200086B72000843
:100140006F7200087372000877720008D17000089F
:100150007B7200087F7200088372000887720008B3
:100160008B7200088F720008937200089772000863
:100170009B7200089F720008A37200080000000034
:10018000A7720008AB72000800F5E07002689142A7
:1001900003D343681A44914202D380680028F5D102
:1001A0007047DFF86C17086890B94FF480504860CA
:1001B0004FF480324FF0FF30C86008610420DFF850
:1001C00054378A604861C3F8BC01DFF84C07086007
:1001D0000120704701F1080313F0070F0EBF002341
:1001E000C3F1080303F007031944D21A8161C26006
:1001F00042F001034B60091D4FF0280C41F802C08A
:10020000DFF80C271369C36170472DE9FC4B0746E3
:1002100001F1080010F0070F0FBF8946C0F1080078
:1002200000F0070001EB000902F1080111F0070FCF
:1002300006D002F10800C0F1080000F007000244F7
:100240001546A5EB090009EB0306A0EB030B43F0F1
:100250000303C9F80430AE4228BF01F005FA28793B
:10026000C10758BF01F000FABBF1100F38BF01F011
:10027000FBF9B869854208D1F9688B44C7F80CB01E
:10028000BE614BF00100706051E1786985420AD18E
:10029000B9688B44C7F808B07E614BF0010070600C
:1002A00046F80BB043E1686800F00301012940F013
:1002B000AC80C008C0000190C0081F2839D8AC68C5
:1002C000D5F80C800090454508BF01F0CDF9A54256
:1002D00008BF01F0C9F968680099C008C000B0EB18
:1002E000C10F18BF01F0C0F9009907F1280000EB19
:1002F000C100844206D039698C42C0F08180E26836
:10030000AA427DD1A04506D10098396801238340D7
:100310009943396076E0804506D0396988456FD3C6
:10032000D8F80800A8426BD1C4F80C80C8F808407F
:1003300068E0EC68D5F81880AC420CD0A868396940
:10034000884223D3C268AA4204BFA168A9421DD132
:10035000C460A0601CE005F114010C6834B905F11B
:1003600010010C68A4B101E011460C6804F11402FC
:100370001068002802BF04F1100210680028F3D1B1
:100380003869814202D300220A6001E001F06CF971
:10039000B8F1000F36D0E96907F5987000EB8100DD
:1003A0000268954208D10460A4B9E869796801221D
:1003B00082409143796025E03869804508D3D8F8B8
:1003C0001010A94214BFC8F81440C8F8104001E04A
:1003D00001F04AF9B4B139698C4211D3C4F81880DC
:1003E000286928B1884226BF2061846101F03CF968
:1003F000686938B13969884202D36061846101E07B
:1004000001F032F901996D188B4469684908490077
:1004100069604BF0010070604FEADB0446F80BB0F6
:100420001F2C23D807F1280000EBC4084546BBF178
:10043000100F38BF01F018F9386820FA04F1CA0724
:1004400005D4012101FA04F404433C6007E0D8F824
:100450000800396988422CBF054601F005F9C8F843
:100460000860EE60B560C6F80C8060E05FEA1B20B3
:1004700008BF002123D0B0F5803F28BF1F211ED226
:10048000A0F58072120C02F008029040A0F5805195
:10049000090C01F004018840A0F580431B0CC2F157
:1004A0000E0203F00203521AD21A984002EBD03225
:1004B000D01D2BFA00F101F0010101EB4201F161C5
:1004C000002307F59872736102EB810033617A684B
:1004D00022FA01F3DC0707D4012303FA01F11143E7
:1004E00079600660B0611DE002681F291DBF4908E0
:1004F000C1F119010BFA01F1594600E002465068BA
:10050000C008C000584516D002F11003C80F03EB15
:100510008003490018680028F0D13869834204D369
:100520001E60B261F660B66001E001F09DF809F16D
:100530000800BDE8F68B396990688A4228BF884276
:10054000F3D3C6609660B060F2600020B061EEE761
:100550002DE9FE4F04468B46A5692E4690469946E6
:100560003146FFF711FE0268416802EB010AAAF169
:10057000270111F007000EBF0021C1F1080101F0B1
:1005800007010AEB0100A0F12F0706F110018F42CD
:1005900038BF374607F11802002101920091A8F1F7
:1005A000280259462046FFF715FE07F1080010F013
:1005B000070F18BF01F058F81B20786007F10801F9
:1005C00004F5E07090E80C5081E80C50C0F800B0E1
:1005D000C0F80480C0F80C9081600722019800994F
:1005E00000E0001D491C00F1080353454260F8D3A8
:1005F0000129D8BF01F038F8B74200F09580BF1B41
:10060000301D321DC15949084900D15147F0010040
:1006100070604FEAD70BF751BBF11F0F21D804EBE5
:10062000CB0000F12805A846102F38BF01F01CF8B8
:10063000206820FA0BF1CA0705D4012101FA0BF159
:100640000843206006E0A868216988422CBF8046E4
:1006500001F00AF8AE60C8F80C60C6F80880F560D2
:100660006FE0380A08BF002123D0B0F5803F28BFD3
:100670001F211ED2A0F58072120C02F008029040D9
:10068000A0F58051090C01F004018840A0F58043D9
:100690001B0CC2F10E0203F00203521AD21A984048
:1006A00002EBD032D01D27FA00F101F0010101EB7D
:1006B000420104EB8102002302F59870F16173613D
:1006C0003361626822FA01F3DB0707D4012303FADE
:1006D00001F1114361600660B0611DE002681F29ED
:1006E0001DBF4908C1F1190107FA01F1394600E0BF
:1006F00002465068C008C000B84216D002F110038C
:10070000C80F03EB8003490018680028F0D1206966
:10071000834204D31E60B261F660B56011E003B09D
:10072000BDE8F04F00F0A0BF0BE0216990688A425D
:1007300028BF8842F3D3C6609560B060F2600020A5
:10074000B06103B0BDE8F08F2DE9F041704F054670
:100750003868884608B9FFF724FDB96801EB08003E
:100760002F30491E20EA010188457DD205F5D87653
:10077000B06828B1326889188A4275D2884273D32A
:1007800000F0B2FF01001CBF0C6811F1010F6BD02B
:100790003068201805F5D87230605368984238BF29
:1007A00018467060A86960BB286908B1814200D210
:1007B0002961316174610020F0614FF0FF303A68C7
:1007C0006A62286205F128020020D260926002F17C
:1007D000080757611761801C10322028F5D34D4857
:1007E000854208BFA4F1280228D055F8040CC0089F
:1007F00005EBC002A2F108000A19121A283A0146B4
:100800001CE005F5E070024600E092687AB31368D8
:1008100057681F44B942F8D1137B1F0727D4AB692F
:100820001768BB4223D3D2F804C06744BB421ED230
:10083000A444C2F804C0E868A96922182846FFF752
:10084000C9FC1FE08068C0B103689342FAD1027B03
:10085000130712D4026801604368E41844604346F9
:100860002846BDE8F041D0E40020BDE8F0812A69C7
:10087000914238BF29610A19E5E70023224628463C
:10088000FFF766FEE8688045EED2A0EB0800A96994
:10089000E86001EB0802AA6140F00100506048F0F6
:1008A0000300486001F10800BDE8F08130B4184B46
:1008B0001A6882B94FF480525A604FF480344FF076
:1008C000FF32DA601A610422124D9C605A61C5F849
:1008D000BC21114A1A6011F1400F17D28269AAB1E6
:1008E000C368283199420BD200F5E0710C68A2422E
:1008F00003D34D682C44A24202D389680029F5D164
:10090000C16999423CBF4FF0FF32C26100F0A8BEFE
:100910003C200020A41B00206859883C2DE9F84F9A
:1009200000258946090AC9F1000B08BF002323D01E
:10093000B1F5803F28BF1F231ED2A1F58072120C93
:1009400002F008029140A1F580531B0C03F0040350
:100950009940A1F58044240CC2F10E0204F0020477
:10096000D21A121BA14002EBD132D11D29FA01F398
:1009700003F0010303EB4203074607F5987858F8A4
:10098000230030B31F2B0FBF4C465C08C4F1190481
:1009900009FA04F4AC46594600E064004268D20803
:1009A000D200A2EB09028A4203D21100054600F0F0
:1009B0006981426910304FEAD47B50F82B00002A3D
:1009C0001CBF824294460028E7D18B466046B0BBEC
:1009D000BDBB012202FA03F35B005842796803436E
:1009E0000B4000F04E81584203405B1E180B00F094
:1009F0001000C340590901F00801CB409A0802F0E9
:100A00000402D3405C0804F002040818E340101804
:100A1000C3F3400620183044F3401B1858F8230055
:100A20000DE008464168C908C900A1EB0901594514
:100A30003CBF8B46054601690029F2D14069002878
:100A4000F0D1002D00F01D81B868A0EB09008345AE
:100A500080F0178139698D42C0F011816868C00843
:100A6000C00009EB0B01884218BF00F0FDFD05EB4B
:100A70000906B54280F00381EC68D5F818A0AC42B5
:100A80000CD0A8683969884223D3C268AA4204BF3F
:100A9000A168A9421DD1C460A0601CE005F1140149
:100AA0000C6834B905F110010C68A4B101E01146DD
:100AB0000C6804F114021068002802BF04F110024F
:100AC00010680028F3D13869814202D300220A60FD
:100AD00001E000F0C9FDBAF1000F36D0E86908EB7B
:100AE000800001688D4209D10460200014D1E869BA
:100AF0007968012282409143796026E03869824515
:100B000008D3DAF81010A94214BFCAF81440CAF882
:100B1000104001E000F0A8FDBCB13869844212D356
:100B2000C4F818A0286930B13969884226BF20610D
:100B3000846100F099FD686938B13969884202D34F
:100B40006061846101E000F08FFDBBF1100F0CD2F9
:100B5000D94449F00300291D6860281D51F8092077
:100B600042F0010240F8092088E049F00300686083
:100B70004BF0010070604FEADB0046F80BB01F2815
:100B80001DD807EBC00101F12804396821FA00F2F1
:100B9000D307A34605D4012202FA00F008433860C7
:100BA00006E0A068396988422CBF834600F05CFDEE
:100BB000A660CBF80C60C6F808B0F4605EE05FEAAF
:100BC0001B2008BF002123D0B0F5803F28BF1F2184
:100BD0001ED2A0F58072120C02F008029040A0F51F
:100BE0008051090C01F004018840A0F580431B0CE2
:100BF000C2F10E0203F00203521AD21A984002EB1D
:100C0000D032D01D2BFA00F101F0010101EB4201BD
:100C1000F16100227261326108EB81007A6822FA88
:100C200001F4E30707D4012404FA01F111437960C8
:100C30000660B0611DE002681F291DBF4908C1F1AF
:100C400019010BFA01F1594600E002465068C0084C
:100C5000C000584518D002F11003C80F03EB800301
:100C6000490018680028F0D13869834204D31E6017
:100C7000B261F660B66001E000F0F6FC14E100F04D
:100C8000F3FC0EE18B46A2E6396990688A4228BFE0
:100C90008842F1D3C6609660B060F2600020B06117
:100CA000ECE72DE9F84F0646884671684842014056
:100CB000491E080B00F01000C1404A0902F008026A
:100CC000D1408B0803F00403D9404D0805F002051C
:100CD0001018E9401818C1F34004281806F5987A4E
:100CE0002044E14009185AF821104868C008C000A3
:100CF0000D46A0EB080909E001464868C008C0009D
:100D0000A0EB080048453CBF81460D460869002815
:100D1000F2D149690029F0D130698542C0F0BF8025
:100D20006968C90808EB090BC900594518BF00F0EC
:100D30009BFC05EB08008542009080F0B080EF68D6
:100D4000AC69AF420CD0A8683169884223D3C2682D
:100D5000AA4204BFB968A9421DD1C760B8601CE0AF
:100D600005F114010F6837B905F110010F68A7B13B
:100D700001E011460F6807F114021068002802BF55
:100D800007F1100210680028F3D13069814202D3C4
:100D900000220A6001E000F067FC002C31D0E86915
:100DA0000AEB800001688D4208D107608FB9E869BD
:100DB0007168012282409143716022E0306984426F
:100DC00005D32169A94214BF6761276101E000F0E2
:100DD0004BFCB7B13069874211D3BC61286930B18F
:100DE0003169884226BF3861876100F03DFC68693F
:100DF00038B13169884202D37861876101E000F03F
:100E000033FCB9F1100F0BD24BF00300291D6860C1
:100E1000281D51F80B2042F0010240F80B203DE064
:100E200048F003012A1D696049F0010042F80800FA
:100E3000009941F80990D6F808804FEAD80BBBF129
:100E4000200F28BF00F010FCB8F1000F22D006EBF5
:100E5000CB00776900F12804A246B8F1100F38BF23
:100E600000F002FC306820FA0BF1CA0705D401211A
:100E700001FA0BF10843306006E0A068316988424E
:100E80002CBF824600F0F0FBA760CAF80C70C7F8D0
:100E900008A0FC60C6F808900098706104E000F0BB
:100EA000E3FB0020BDE8F28F05F10800BDE8F28FFA
:100EB0002DE9FE4F0546AFF30080F52DDFF89C6766
:100EC00080F004810B2D31BF10250B35ED08ED00AE
:100ED0003068EC08E04010F0030F46D0C04300F04B
:100EE0000100041906F1280000EBC408E700D8F857
:100EF00008506868C008C000B84218BF00F0B4FBD2
:100F0000D5F80890454508BF00F0AEFB4D4508BF39
:100F100000F0AAFB6868C008C000B84218BF00F023
:100F2000A3FBC84507D13068012101FA04F420EA87
:100F3000040434600DE03069814508D3D9F80C1001
:100F4000A94204D1C8F80890C9F80C8001E000F06B
:100F50008BFB47F00300291D6860281DCA5942F029
:100F60000102C25105F10804F8E0B168A94280F01D
:100F7000BE80002800F0A1804FF0010808FA04F1BB
:100F8000490000FA04F4484201430C406042044026
:100F9000641E200B00F01000C440610901F008013C
:100FA000CC40A20802F00402D440630803F002031C
:100FB0000818DC401018C4F3400718183818FC4013
:100FC000241806F1280000EBC40AE700DAF80890BC
:100FD000D9F80400C008C000B84218BF00F044FBB4
:100FE000D9F808B0D14508BF00F03EFBD94508BF8D
:100FF00000F03AFBD9F80400C008C000B84218BF9E
:1010000000F032FBDA4506D1306808FA04F420EA31
:10101000040434600DE031698B4508D3DBF80C0023
:10102000484504D1CAF808B0CBF80CA001E000F0A4
:101030001BFB7F1B45F0030009F10402C9F8040003
:1010400047F00101515109EB05020192D751B468F3
:101050004FEAD40ABAF1200F28BF00F005FB34B3E1
:10106000CDF800A006F12800756900EBCA0AD34646
:10107000102C38BF00F0F8FA3168009821FA00F21D
:10108000D30704D408FA00F00843306007E0DAF828
:101090000800316988422CBF834600F0E5FACAF89F
:1010A0000850CBF80C50C5F808B0C5F80CA0B760D4
:1010B00009F108040198706150E07068C0B32946D6
:1010C0003046FFF7EEFD040011D047E015F1400F68
:1010D00028BF4FF0FF350AD20B35ED087068ED00E0
:1010E00028B129463046FFF719FC040036D1B06814
:1010F000A8421DD3411B726910290AD3501970618F
:10110000B16041F001034360415045F00305556073
:101110000BE00021B1607161131D40F003015160CB
:10112000111D1C5844F001040C5002F1080415E094
:10113000F06885420DD2401BB169F0604A19B26176
:1011400040F00100506045F003054D6001F10804D6
:1011500004E029463046FFF7F7FA0446AFF3008073
:101160002046FFF7EEBA002800D170472DE9F0477E
:10117000A0F10805AFF30080DFF8E06431698D422B
:10118000C0F05982686800F00302012A00F053821F
:10119000C2084FEAC209C20705EB090839D42C6816
:1011A00010F0030F00F04982604205448D42A144D3
:1011B000C0F041827069854200F0C680E408202CAE
:1011C0005ED2D5F80CA0AF68554508BF00F04CFAC8
:1011D000BD4208BF00F048FA6868C008C000B0EB24
:1011E000C40F18BF00F040FA06F1280000EBC4005D
:1011F000874205D031698F423FD3FA68AA423CD179
:10120000BA452CD13068012101FA04F420EA040423
:101210003460454580F00F82D8F80440E00740F183
:101220000A82A10700F16881B069804540F09F8083
:10123000F168B5618944C6F80C9049F00100686016
:1012400071698D4202D100207061B060F06948453B
:1012500080F0F38100213046FFF728FBEDE1824565
:1012600006D03069824508D3DAF80810A94204D1C3
:10127000C7F80CA0CAF80870CBE700F0F5F9C8E78A
:10128000EC68AF69AC420BD0A868884222D3C16831
:10129000A94204BFA268AA421CD1C460A0601BE09E
:1012A00005F11402146834B905F1100214689CB1F8
:1012B00001E01A46146804F114031868002802BFFC
:1012C00004F1100318680028F3D18A4202D30021E8
:1012D000116001E000F0C8F9002F9AD0E96906F525
:1012E000987000EB81000268954209D104602000EB
:1012F00011D1E8697168012282409143716088E7E9
:101300003069874205D33969A94214BF7C613C61C9
:1013100001E000F0A9F9002C3FF47BAF31698C4269
:10132000ABD3A761286928B1884226BF20618461B8
:1013300000F09AF9686900283FF46BAF3169884280
:101340009BD36061846164E798F8040000F00300B7
:1013500003287FF45EAFC6F8089049F00101D8F881
:10136000040040084000C8F8040069600AE07069A1
:1013700080450AD1B16875618944C6F8089049F082
:101380000100686045F8099057E1E408E400A144D1
:10139000E408202C3AD2D8F80CA0D8F80870D04530
:1013A00008BF00F061F9B84508BF00F05DF9D8F852
:1013B0000400C008C000B0EBC40F18BF00F054F91F
:1013C00006F1280000EBC400874207D031698F4244
:1013D000C0F08580FA68424540F08180BA4507D167
:1013E0003068012101FA04F420EA0404346078E052
:1013F000824506D03069824571D3DAF8081041453C
:101400006DD1C7F80CA0CAF808706AE0D8F80C4093
:10141000D8F8187044450DD0D8F8080031698842D2
:1014200023D3C268424504BFA16841451DD1C460B1
:10143000A0601CE008F114010C6834B908F1100137
:101440000C68A4B101E011460C6804F114021068A4
:10145000002802BF04F1100210680028F3D130699F
:10146000814202D300220A6001E000F0FDF8002F63
:1014700037D0D8F81C1006F5987000EB8100026890
:1014800090450AD10460200012D1D8F81C00716880
:10149000012282409143716023E03069874205D385
:1014A0003969414514BF7C613C6101E000F0DCF822
:1014B000BCB131698C4212D3A761D8F8100028B1B1
:1014C000884226BF2061846100F0CEF8D8F814006D
:1014D00038B13169884202D36061846101E000F073
:1014E000C3F849F00100686045F8099071698D42C0
:1014F0000BD1C6F80890A0E064086400C8F8044066
:1015000049F00100686045F809904FEAD907202F9B
:1015100022D206F1280000EBC704A046B9F1100F53
:1015200038BF00F0A1F8306820FA07F1CA0705D4E7
:10153000012101FA07F70743376006E0A068316927
:1015400088422CBF804600F08FF8A560C8F80C5088
:10155000C5F80880EC6070E05FEA192008BF002140
:1015600023D0B0F5803F28BF1F211ED2A0F5807286
:10157000120C02F008029040A0F58051090C01F015
:1015800004018840A0F580431B0CC2F10E0203F059
:101590000203521AD21A984002EBD032D01D29FA17
:1015A00000F101F0010101EB420106F59872002300
:1015B00002EB8100E9616B612B61726822FA01F331
:1015C000DC0707D4012303FA01F1114371600560C0
:1015D000A8611DE002681F291DBF4908C1F119015A
:1015E00009FA01F1494600E002465068C008C0000F
:1015F000484526D002F11003C80F03EB80034900D1
:1016000018680028F0D13069834204D31D60AA61B4
:10161000ED60AD6001E000F027F8306A401E3062F6
:101620000BD1D6F8C80100E080680028FCD14FF04B
:10163000FF30306201E000F017F8AFF30080BDE842
:10164000F087316990688A4228BF8842E3D3C56039
:101650009560A860EA600020A861DEE7A41B002076
:1016600030BC002070470000012000F053B8F0B4F7
:101670000246106895681318506803EB5004C007C1
:101680001DD54D441BE013F8017B05F8017B491E75
:10169000F9D1A0B1B60813F8011B06F00306032E1A
:1016A00008BF13F8016B01EB06214942801C294455
:1016B00005D011F8016B05F8016B401EF9D1A3426A
:1016C0000ED013F8016B16F0030104BF13F8011BD1
:1016D000C91C30090F28DAD113F8010B0F30D6E7F7
:1016E000F0BC02F10C0070470749086808B10020FF
:1016F00070470648C008C00008600549C908C9000D
:10170000091A0160704700BF58200020672400209C
:101710006028002080B500F007F8024A1100182068
:10172000ABBEFBE72600020080B500F054F80200D3
:101730000023DB431068984204D011000220ABBEA6
:10174000002010605068984204D0111D0220ABBEEA
:101750000020506001BD0000F0B583B0040000F02F
:101760003AF8A10047183D680026F643B54216D165
:1017700000F01AF83D68B5420FD100BF09A00090F3
:10178000002C01D1002000E00420019003200290F1
:1017900069460120ABBE05003D6000F014F828004A
:1017A00003B0F0BD3A7474000C480121BFF35F8FA1
:1017B000D0E84F3FC0E8421F002AF9D1BFF35F8F46
:1017C000002BF3D170470548BFF35F8F00210170F4
:1017D000BFF35F8F70470248704700005D20002014
:1017E000F80200202DE9F04F0FF2A41CA1B0DCE9B3
:1017F0000089CDE900892A9DDFF8DC9B0491002453
:101800008DF843500D944FF0FF38824616461F4620
:101810000FE0B3462C461BF8011B0498D047002864
:10182000049000F0A2800D98401C641E0D90F2D12F
:1018300076193078252808D10021002207910892D6
:1018400009910A920B910C920DE06A46414630468E
:1018500000F0BAFF050001D10D98A1E0D9D501250E
:10186000E6E741F0010116F8010F2028F9D02328FE
:101870000CD02B2804D02D2805D0302809D076E0B4
:1018800041F00201EFE741F00401ECE741F008010B
:10189000E9E741F01001E6E70F9209E00F984845AB
:1018A00005DA00EB800402EB4402303A0F92761C1A
:1018B0003278A2F130000A28F0D330782E2818BFF1
:1018C000CDF8388022D116F8010F2A2807D13868C0
:1018D0003860761C50F8042B38600E9216E02D28E4
:1018E0000CBF761C002000220E920AE040B90E9A2E
:1018F0004A4505DA02EB820403EB4403303B0E93C6
:10190000761C3378A3F130020A2AEFD3ADF84010E9
:1019100021A0317800F062FF08B116F8010B8DF8B4
:1019200042009DF84200682804D1307868280AD126
:10193000622105E06C2804BF30786C2803D1712146
:101940008DF84210761C12A806903A4616F8013B14
:1019500002A9504600F064F838B912AA02A950460C
:1019600000F0C8F900287FF564AF404618E02A2847
:1019700092D13A683A6052F8040B3A6000280F900E
:1019800003D540420F9041F00401761C95E700001A
:101990000000000000000000686A6C747A4C0000CF
:1019A00021B0BDE8F08F622820D0682811D06A28C5
:1019B00003D06C2827D0712825D10868C01D20F0DD
:1019C00007000860D0E90023083008601946104677
:1019D0007047002A0A680A60106803D0121D0A6066
:1019E00000B217E0121D0A6080B217E0002A0A68F0
:1019F0000A60106803D0121D0A6040B20AE0121D8E
:101A00000A60C0B20AE0002A0A680A60106803D0BF
:101A1000121D0A60C1177047121D0A60002170472D
:101A20007CB50D4611461C462E69B4F1250200F026
:101A30004F811C3A00F08480121F022A40F28080FD
:101A40000E3A00F00981521F59D0093A78D0921EFF
:101A500016D0521E35D0521E022A71D9121F30D014
:101A6000521F00F09880521E49D0521E00F0E280B2
:101A7000D21E00F0FF80921E41D0D21E3FD02DE139
:101A800095F83A406C2C09D06869421C6A610A6872
:101A90000A6052F8043B0A60335429E10A680A607C
:101AA00052F8043B0A600093002201924FF0FF338A
:101AB0002B636A46294600F098F9002840F1188106
:101AC00003E195F83A000122FFF76DFFC5E9000137
:101AD000002904D56869411C69612D220DE0288F19
:101AE000810704D56869411C69612B2205E0C007A4
:101AF00021D56869411C6961202232541BE095F8A8
:101B00003A000022FFF74FFFC5E9000195F83800C1
:101B1000010710D5D5E90023002B08BF002A0AD001
:101B200044F02000782806D1686930213154401CE7
:101B3000421C6A613454214668693044E86087E099
:101B40000868C01D20F007000860D0E900230830B5
:101B50000860C5E90023D5E90001C80F04D0686911
:101B6000411C69612D220DE0288F810704D5686929
:101B7000411C69612B2205E0C00704D56869411C3E
:101B800069612022325468693044E8602146284661
:101B900000F036FAACE005F13A02507820B14FF08F
:101BA000FF340FF6043074E01078622808D06828FB
:101BB00024D06A2812D06C282ED071280ED02BE0A9
:101BC0000A680A6052F8040B0A6020B94FF0FF342B
:101BD0000FF6EC205DE0E96A017089E00A680A60AE
:101BE00052F8040B0A6020B94FF0FF340FF6D020F2
:101BF0004FE0EA6AD317C0E9002379E00A680A6077
:101C000052F8040B0A6020B94FF0FF340FF6B020F1
:101C10003FE0E96A01806BE00A680A6052F8040B51
:101C20000A6020B94FF0FF340FF6942031E0E96AE2
:101C300001605DE00A680A6052F8040B0A60002146
:101C400020F0000221F0FF33C5E90023EE60782187
:101C5000284600F02DF94BE06C2285F83A200B68FD
:101C60000B6053F8042B0B6052BB4FF0FF340FF6A0
:101C700084200EE095F83A206C2AF0D008680860BD
:101C800050F8044B0860EC603CB94FF0FF340FF69D
:101C9000482000F0BDFD201A76BD2E6B002E04D525
:101CA000204600F0D5FD044608E0324600212046DB
:101CB00000F0D8FD002814BF041B3446AC6117E0C7
:101CC000294600F092F8002812D54FF0FF3076BD7B
:101CD0006869411C69612522325409E06969481C20
:101CE000686125227254210002D0431C6B61345478
:101CF000002076BD2DE9F0410E4605469046726BF8
:101D00007069316AB46A121AB069521A716A121A89
:101D1000F069521A121A96F83800141B41070DD4B4
:101D2000002C0BDD2746B0682021A8470028B060B2
:101D300057D0F06A401C7F1EF062F4D173694246AE
:101D40003146284600F098FC00284AD1376A002F17
:101D50000ADDB0683021A8470028B06041D0F06AA1
:101D6000401C7F1EF062F4D1B369F2683146284608
:101D700000F082FCA8BB776A002F09DDB068302133
:101D8000A847B06068B3F06A401C7F1EF062F5D1CE
:101D9000F068B169F36942183146284600F06CFCDE
:101DA000F8B9B76A002F09DDB0683021A847B060E4
:101DB000B8B1F06A401C7F1EF062F5D196F8380089
:101DC00041070BD5002C09DDB0682021A847B06081
:101DD00038B1F06A401C641EF062F5D10020BDE805
:101DE000F0814FF0FF30BDE8F0812DE9F8470D4656
:101DF000A3B02F6B002F0646904648BF6FF00047F8
:101E00000FF60C1400F05AFDD4E90023696B40185A
:101E1000CDE90123812828BF4FF0FF3042D20024B2
:101E2000002F33DDD8F8001001AA684600F0CEFC80
:101E30008146B9F1000F38D4D8F8000010B9B9F1D3
:101E4000010932D44F4521DB6869484481280AD30F
:101E50000021696303AA29463046FFF74BFF0400BF
:101E600014D40020686103ABD5F814A04A46694633
:101E700003EB0A0000F028FDCA44C5F814A058F886
:101E8000040B002818BFA7EB0907C9D14CB903AA56
:101E900029463046FFF72EFF044614B9002068613A
:101EA0006863204624B0BDE8F0874FF0FF34F8E7C0
:101EB0002DE9FC4307466F293E6908BF082405D079
:101EC00041F02000782814BF0A2410243C25D7E9CB
:101ED0000023642918BF69299046994605D1002B33
:101EE00003D5D8F1000869EB4909B9F1000F08BF23
:101EF000B8F1000F1FD1386BE8B9082C4CD197F816
:101F00003800010748D530203B2586F83B0043E0E8
:101F100000280ED597F8380000F01400102808D1DA
:101F20007B6B7969386A5B1A1B1A9A1A002AC8BF38
:101F30003A62BDE8F3838DF80010404649462246D8
:101F4000E31700F0CDFC3032D0B26D1E3A28019577
:101F500004DB9DF80000A0F151018A18725540463B
:101F600049462246E31700F0BBFC80465FEA0109C0
:101F700008BFB8F1000F03D0F86871198842DCD3AC
:101F8000082C09D197F83800010705D5705D302875
:101F900002D06D1E30207055C5F13C02BA61711936
:101FA000F960386B8242B3DA821A3A624FF6EF7008
:101FB000398F01403987BDE8F3832DE9D0430646C8
:101FC0000F4614464FF00008DFF8109412E0E007C7
:101FD00007D542464B463046394600F005FD0646D9
:101FE0000F464046494642464B4600F0FDFC641011
:101FF00080468946002CEAD130463946BDE8D08378
:102000002DE9F84F05468A464AF020048EB0D5E9FE
:102010000089612C02AE09D0286B002848BF062039
:1020200003D408BF672C01D101202863D5E9000142
:102030004A005215521C0DD10B030BD0AAF16101BD
:1020400003201A29A86102D20FF2CC6110E00FF22E
:10205000CC610DE04A005215521C0ED10B030CD17D
:10206000AAF1610103201A29A86116D30FF2B46105
:10207000E868032200F028FCC0E1CDE90C01DDE9AD
:102080000C2323F00043B3F5801F0DD20027002B53
:1020900008BF002A019703D111E00FF28461E7E73E
:1020A00001AA00F073FD0AE0CD48CE4900EB1350C1
:1020B000DDE90C2301900B40CB4910461943C5E9DB
:1020C0000001612C0DD1E86830210170821CBAF149
:1020D000610FEA600CBF7821582141706869801C4B
:1020E0006861D5E90001CDE90C01DDE90C2333F08D
:1020F000004104BF0028002300F04881612C40F01B
:10210000A080286B494600284CBF4FF0210B00F1FE
:10211000010B404600220023DDE90C8900F06EFD32
:1021200001990BF1010738BF89F00049091F002F01
:1021300001918DF808200DF1090040F33581A9497E
:1021400000910646404649460022002300F06EFDFD
:1021500080F029814800400D00F11C0211D0002AB6
:102160000FDD40F2FF739A4205DBA04909F0004001
:102170000143002011E0009B194041EA0251404612
:102180000BE028F0000039F0004108BF00280FBF25
:1021900049461C22494600F061FD8046894600F010
:1021A000FBFDFF1F002F044609DD00F013FE024671
:1021B0000B464046494600F01FFE80468946F01D0A
:1021C000072104E004F00F0200F8012D2411002C77
:1021D00001DD491EF6D5491E5CBF002200F8012D25
:1021E000F9D5DCE00020194602AA0A4400E05B1E93
:1021F00012F80149491E8442F9D00F2804D10DF18B
:102200000900425C521C4254002904D50198001D6B
:1022100002AE5B1C0190581E0CD43118AAF13A048E
:102220000A783032D7B23A2FA8BFA218401E01F860
:102230000129F5D5286B002840F1A780591E296394
:10224000A3E001996A4A47F29750414391FBF2F2A9
:10225000019229F00046D2F1070204DD40463146E2
:10226000FFF7ABFE0AE0524200206249FFF7A5FEED
:1022700002460B464046314600F030FE8046662C52
:10228000286B06BF019F0A3706273F18142FC8BFC7
:10229000142730208DF8080089460DF1090000E070
:1022A0003046002F34DD06464046494600F03AFFEE
:1022B00001460A4606F1080304200A26B2FBF6F698
:1022C00006EB860EA2EB4E02303203F8012C0A22F6
:1022D000B6FBF2F202EB820EA6EB4E063036401E43
:1022E00003F8026DE9D1083F002F03F10806D7DD9E
:1022F000084600F02BFF02460B464046494600F0D8
:102300007BFD00223C4B00F06FFB80468946CBE70B
:102310000DF10901401A0DF1090604E00199491E69
:10232000401E0191761C31783029F7D0662C02D1FD
:102330000199491C03E0652C0CBF012100212B6B86
:10234000CB189842B8BF431E002B1ED4834204DA38
:10235000F05C3528A8BF392000DA30201946721EFB
:1023600002EB010800E05B1E18F80199491E814547
:10237000F9D0392802D1705C401C7054002904D572
:102380000198401C16465B1C0190019800B2009019
:102390001BB232465146284600F034F82EE0C61DE6
:1023A000002F3FF7CFAE30460DF10901401A03462A
:1023B0005845C8BF5B46002B0DF109063FF53AAF03
:1023C0008342BFF60FAF0DF10900C15C07297FF70B
:1023D00009AF0F2007E70000CBCCCC0C0000244055
:1023E00002FCFFFFFFFF0F800000E03F0000F07FD6
:1023F000A08601000000F03F84D797410FB0BDE8F0
:10240000F08F00002DE9F84783B006468A4617464C
:10241000984600F0DDF9B8F1000F406A356B90F88E
:10242000009002DC4FF00108BFA74AF02000BDF980
:102430003040662808BF641C15D0672840F08480AF
:1024400014F1040FC0F28680AC4280F2838096F8CB
:102450003800641C010702D4A845B8BF454620B225
:102460002D1A48BF00250FFA84FAF068B169BAF155
:10247000000F25DC4A1C30234354002D03DC96F862
:102480003800010703D5F06800F80290521C15EBE4
:102490000A0FB8BF6C4220B2441941424445B8BF4C
:1024A000A046B26171620FFA88F5F561F068B36910
:1024B0002A463946184400F007FA641BB462C4E0A7
:1024C00022B29045084417DA4246394600F0FCF93A
:1024D000B0694044B061AAEB0801002D716203DCD1
:1024E00096F838100A0705D5F16801F80090F069F0
:1024F000401CF061B562A8E0394600F0E5F9B0692A
:10250000002D5044A8EB040803DC96F838100A07A5
:1025100003D5F16801F80090401CB0610FFA88F013
:102520008542F368B069B8BFA8460FFA88F207EB96
:102530000A01184400F0C8F9B1690FFA88F00144A3
:10254000B161281A706280E0BAF1610F14D14FF0C6
:10255000700A16E0A84504DA96F838100A0758BF42
:1025600045466D1E48BF0025BAF1670F14BF4FF0F6
:10257000450A4FF0650A04E0BAF1410F08BF4FF079
:10258000500AB169F368481CB061002D17F8012B9F
:102590005A5403DC96F838100A071BD5F168431C1F
:1025A000B36101F80090002D14DDA8F101080FFAC5
:1025B00088F039468542F768B8BFA8460FFA88F216
:1025C000F81800F081F9B0690FFA88F108446D1A23
:1025D000B0617562F068B1690844002C80F800A011
:1025E00003D42B224270811C03E02D2141706442F0
:1025F000811C00206A460AE023460A2493FBF4F477
:1026000004EB8405A3EB450302F8013B401C24B214
:10261000002CF1DC012806DC4AF02002652A04BF08
:10262000302201F8012B48B9302001F8010B07E0F6
:10263000401E1DF80030303301F8013B0028F7DC64
:10264000F268B0691044091AF16196F8380000F098
:10265000140010280DD17269B169706A8A18F16985
:102660008218B06A8A188218706B8242BCBF821AC4
:10267000326204B0BDE8F087F8B505460E4617464D
:102680001C46002074B117F8011BB068A847B06061
:1026900030B1F06A401CF0620020641EF3D1F2BD3C
:1026A0004FF0FF30F2BD00007072696E74665F73A8
:1026B0003A20256E20646973616C6C6F77656400E5
:1026C0007072696E74663A2062616420256E2061C2
:1026D0007267756D656E74007072696E74665F7393
:1026E0003A2062616420257320617267756D656EA2
:1026F000740000007072696E74665F733A206261E4
:102700006420256C7320617267756D656E740000BE
:1027100000000000000000006E616E004E414E009F
:10272000696E6600494E4600300030B4002513E063
:1027300050F8042BD30744BFA9F101039A18091FCD
:10274000042942F8045BFAD213468C0744BF158073
:102750009B1CC90748BF1D7050F8041B0029E7D116
:1027600030BC70471B48704770B45368D418042BB2
:1027700009DA41B1057804F8015B10F8016B16B174
:102780005B1C491EF3E7536070BC704738B51446B4
:102790001D4661B1FFF7E8FF61686A6B204690470C
:1027A0006FF00102811A02D0491E01D001E003E05E
:1027B00005E00021616032BD6FF0010032BD4FF0D5
:1027C000FF3032BDDA6B1047024BDFE7014BF9E710
:1027D00001487047B801002080010020C9B202788A
:1027E0008A421AB11CBF10F8012FF9E718BF002068
:1027F0007047B1F5807F02D34FF0FF307047017012
:10280000012070470078401E8041C043C00F7047D0
:1028100080B500B906A005490B681BB12222002132
:10282000984701E0FEF720FF222002BD542000203F
:10283000636F6E73747261696E742068616E646C2C
:1028400065723A20626164206D657373616765002B
:1028500000F1010310F8011B11B110F8011BFBE797
:10286000C01A7047C9B2830706D0521E22D310F88F
:10287000013B9942F7D11FE0083A13D302F1040259
:1028800041EA012141EA014150F8043B121F21BFF6
:102890004B40A3F1013C2CEA030C1CF0803FF3D029
:1028A000C9B2001F083210F8013B521E28BF91EA3E
:1028B000030FF8D818BF0120401E704780B5FFF7FE
:1028C00051FF006C02BD00004AB1000011F8013B4D
:1028D000521E00F8013B1CBF11F8013BF8E770479E
:1028E000D3BBD9B1B2F5803F5BD2022A1ED98C4648
:1028F000B1FBF2F102FB11C31B0443EA1043B3FB2B
:10290000F2FC02FB1C3380B240EA0343B3FBF2F05B
:1029100002FB103240EA0C4000237047022A05D91E
:102920008446B0FBF2F002FB10C270474AB105D1F9
:1029300000F0010249085FEA3000704700220023DE
:10294000704700F011BC0B0002000021002070470E
:10295000F7D3002200237047904271EB030CF2D3AF
:1029600070B5B1FA81F4B3FA83F52C1BA340C4F11E
:10297000200532FA05F63343A2405FF00046E640F8
:1029800002E05B085FEA3202841A71EB030524BFA0
:10299000204629467641F4D302000B003000002186
:1029A00070BD70B5B1FA81F4B2FA82F5C4F12004B9
:1029B0006419B4F12006DAD3B2405FF00044F44069
:1029C000002502E052085FEA3303C61A71EB020EDB
:1029D00024BF3046714664416D41F3D302000B00C1
:1029E0002000290070BD0000B0B581EA030C0CF096
:1029F000004C40F2FF7515EA11541DBF15EA13573C
:102A0000AC42AF4239E0E41923EA455343F4801362
:102A1000C90241F0004141EA505EC7021100A7FB24
:102A2000020200284FF00000EEFB01204FF00001F1
:102A3000E3FB072118BF42F0010240180021494181
:102A4000E3FB0E01A4F580640F0302D25200404163
:102A5000494154F101046CDD470872F1004250F124
:102A6000000051EB0451A1F580115CBF41EA0C015B
:102A7000B0BD4CEA05510020B0BD05EA1357AC4289
:102A800014BFAF4241E050EA410E1CBF52EA430E70
:102A900002E061460020B0BD24423C441BD15FEA05
:102AA000070EF6D0090302BF01460020AEF1140E56
:102AB000B1FA81F7AEEB070401FA07FE0C37C7F154
:102AC000200100FA07F7C8404EEA000E23EA4553FA
:102AD00043F48013A2E733F00043B3FA83F704BF53
:102AE000B2FA82FE77440B3FE41BB7F1200E2FBFF2
:102AF00002FA0EF3BB40C7F1200E22FA0EFE38BFD9
:102B000043EA0E03BA40641C82E750EA410E14BF48
:102B100052EA430E6FF000014FF4001717EB430F1A
:102B20008ABF194617EB410FB5E74CEA0551002063
:102B3000B0BDD4F10104B4F120070FDAC4F12007CD
:102B4000520828BF42F0010210FA07F501FA07F710
:102B5000E1BF2A43E0403843E1400FE0352C98DCE8
:102B6000C7F1200452EA400220FA07F218BF42F0EF
:102B7000010231FA07F0A1400A43002172F100423C
:102B800050F1000051EB0C01B0BD000010B514462F
:102B900000F002F8226010BDC1F30A5343B14A00AD
:102BA00012F5001F28D2A3F2FE32A1EB02517047AA
:102BB00050EA410C20D001F0004C31EA0C01B1FA8E
:102BC00081F204BFB0FA80F3D2180B3AB2F12003BD
:102BD0002CBF00FA03F1914041EA0C013EBFC2F163
:102BE000200C20FA0CF319439040524240F2FD337E
:102BF000D21A01EB03517047002270474FF4001CBA
:102C00001CEB410F94BF1CEB430F09E041EA030C9E
:102C100050EA4C0C52EA0C0C03D2994208BF904285
:102C2000704714BF8B428242704700004FF4001C73
:102C30001CEB410F94BF1CEB430F09E041EA030C6E
:102C400050EA4C0C52EA0C0C03D28B4208BF824271
:102C5000704714BF9942904270470000124254D40A
:102C600040F2FF7C1CEA11530FD0634531D09B1812
:102C700063453CBF01EB0251704701F0004141EA5E
:102C80000C510020AFF30080704750EA410320D080
:102C900001F0004C91EA0C011CD0B1FA81F30B3B1E
:102CA0009A420DD9D21A994051EA0C01C3F1200C75
:102CB00020FA0CFC61449840531C40F2FF7CD7E79B
:102CC000914041EA0C01C2F1200C20FA0CF31943A7
:102CD00090407047B0FA80F31533202BE0D3202AC0
:102CE000EED3203A203B9A4209D9D21A00FA03F1D6
:102CF00041EA0C010020531C40F2FF7CB8E700FAC7
:102D000002F141EA0C0100207047524240F2FF7C80
:102D10001CEA11530DD06345DBD0B2EB030C3CBF72
:102D2000A1EB025170470CF1010221EA035141F479
:102D3000801150EA410CCCD001F0004C352A27DC40
:102D400030B481EA0C01B2F1200309DAC2F12003A8
:102D5000044601FA03F5D0402843D1409C400CE0E2
:102D6000C3F12002450020FA03F418BF44F0010427
:102D700021FA03F091400C43002174F1004550F119
:102D8000000051EB0C01244230BC7FF47BAF704754
:102D90006146002076E70000C1F30A5340F2FE329C
:102DA0009B1A14DDD3F120034FEAE17208DDC9025A
:102DB00041EA505141F00040D840801850407047DF
:102DC00003F2E13010B1D24382F00040704700209E
:102DD00070470000C11768B14840401AB0FA80F24D
:102DE0009040D21CC907C2F5846241EA025202EB4C
:102DF000D02140057047000070B44FF0004591EAC3
:102E0000030F40F1B3816B40841A71EB030603D2C8
:102E1000001BB141121973414FF4001C1CEB410F10
:102E200034BF7CEB430442E00C0DA4EB1356352E6B
:102E30004FDC45EAC323DB0A45EAC121C912B6F1DA
:102E400020050DDD63FA05F6EB4086EA0305124224
:102E500018BF45F00105C01851F100010CD213E074
:102E600062FA06F5F2405540F3415A40B340F34050
:102E70005A408018594107D349085FEA30005FEA99
:102E8000350528BF45F0010501F58011420875F1AF
:102E9000004250F1000041EB04514E0016F5001FB6
:102EA00070BC38BF70470020090D090570471CEB46
:102EB000410F10D252EA43060BD0BCEB410F05D8AC
:102EC0000C0DAB43661E342EB6DD02E0AB4380181A
:102ED000594170BC704770BC70470000F0B540F2BB
:102EE000FF7581EA030C0CF0004C15EA11541DBF6C
:102EF00015EA1357AC42AF42E5E0BC41C1F3130100
:102F0000C3F31303801A994143F4801304D2641E5F
:102F10004000494180185941C90241EA5051B1FB72
:102F2000F3F603FB1611A2FB0675D7EBC020A941EF
:102F300002D2761E80185941C90241EA5051B1FBB4
:102F4000F3FE03FB1E11A2FB0E75D7EBC020A941B7
:102F500003D2AEF1010E80185941890241EA905125
:102F6000760546EA8E2EB1FBF3F603FB1611A2FBA3
:102F70000675D7EB8020A94102D2761E80185941F0
:102F8000C90241EA50514EEA060EB1FBF3F603FBCB
:102F90001611A2FB0675D7EBC020A94102D2761EFE
:102FA00080185941C90241EA5051B1FBF3F703FBC4
:102FB0001711A2FB0735D3EBC020A94167F1000729
:102FC0000CBF004247F0010766F3D5274FEA1E31D8
:102FD000B80814F5806412DDBD0775F1004250EBAE
:102FE0000E5051EB045111F5801F5CBF41EA0C01FA
:102FF000F0BD4CF07F6141F0E0410020F0BDBD0725
:103000006D0840EA0E5041F48011D4F10104B4F18E
:1030100020060ADAC4F120060200E04001FA06F3B5
:10302000E1401843B24015430EE0342C13DCC6F1E6
:10303000200445EA40056D0820FA06F2154321FAFE
:1030400006F0A1400D43002175F1004250F100004F
:1030500051EB0C01F0BD00205FEA0C01F0BDCFB9CF
:1030600092185B41B3FA83F704BFB2FA82F6BF1934
:103070000B3FB7F120062FBF02FA06F3BB40C7F1A2
:10308000200622FA06F638BF3343BA401CB1E419D1
:10309000641E33E77F4231F00041B1FA81F404BF8E
:1030A000B0FA80F6A4190B3CB4F120062FBF00FA49
:1030B00006F1A140C4F1200620FA06F638BF3143DC
:1030C000A0403C1B1AE7AC421ABF05EA1357AF42B7
:1030D00012E050EA41061CBF52EA4306BFE750EA3D
:1030E0004107304661461CBF41EA0551F0BD52EA36
:1030F000430C08BFC143F0BD00204FF4001616EB8F
:10310000410F98BF16EB430F08BF16EB410F24BFCA
:10311000C14305E016EB430F0CBF61464CEA055175
:10312000F0BD0000400D491840EA81200CD2490D45
:10313000A1F58061491C40F0004005DBD1F11F0181
:1031400054BFC840C017704700207047014648B1BF
:10315000B0FA80F18840C91CC1F58461090501EB12
:10316000D02140057047000070470000841A71EBC1
:10317000030604D26E40001BB141121973414FF493
:10318000001C1CEB410F34BF7CEB430683E00C0DAD
:10319000A4EB1356362E00F37C80012E45EAC323A0
:1031A00041DC43EA525312BFD20292025B0824056B
:1031B00045EAC12141EA5051D2EBC020994125D4C2
:1031C00007D1B0FA80F610FA06F162D0002020365E
:1031D00008E0B1FA81F6B140C6F1200220FA02F20D
:1031E0001143B0404FEAF474B4EB465434F0010696
:1031F0004FEA74040AD8D6F50016760D04F00044A0
:10320000F04061FA06F25040F1404840C00A40EAFE
:10321000415021F0004128BF5FEA500550F1000005
:1032200044EBD12135E0DB0A45EAC121C90AB6F1F8
:1032300020050EDD42EA0242120CC5F1200603FA17
:1032400006F6EB4042EA06056D42984161F1000145
:103250000DE062FA06F5F240554063FA06FC82EA98
:103260000C02F3405A406D42904161EB030111F4AE
:10327000801F05D1641E620502D06D0040414941A6
:1032800021F48011430875F1004350F1000041EB37
:10329000045170BC70471CEB410F15D223F0004362
:1032A00052EA43060BD04FEA4C0CBCEB410F04D85A
:1032B0000C0D661E342EB7DDEBE7801A994150EAFB
:1032C000410608BF0021E4E708BF1CEB430F28BFFD
:1032D0006FF00001DDE700000EB418B50446089851
:1032E000012817D1A06B20F48030A063E168DFF8DB
:1032F00008080140E160E16821F44011E1600F98A5
:10330000012803D1E06840F48010E060204600F01E
:10331000DEFB0FE0E06840F04000E060204600F097
:10332000D6FB0C990029A16B0CBF41F4803121F42C
:103330008031A1630699012907D1A16841F00601F6
:10334000A160A16841F02001A16012BC5DF810FBF2
:10335000022A4FD1DFF8A427DFF8A43752189A4287
:1033600038BF0F2147D3DFF89C27DFF89C3752186E
:103370009A4238BF0E213ED3DFF89027DFF8B037EE
:1033800052189A4238BF0D2135D3DFF8A827DFF84D
:10339000A83752189A4238BF0C212CD3DFF89C274B
:1033A000DFF89C3752189A4238BF0B2123D3DFF83D
:1033B0009427DFF8943752189A4238BF0A211AD35B
:1033C000DFF88827DFF8883752189A4212D3DFF8DF
:1033D0008427DFF8843752189A4238BF08210AD36D
:1033E000DFF87827DFF87837511899422CBF06218B
:1033F000072100E00921C26822F47052C260C2684D
:1034000042EA8122C26000207047816841F00101D8
:1034100002E081684908490081600020704780B55A
:10342000C26822F0C0420129C26005D1C16841F0E2
:103430000051C1603220DAE219B9C16841F080411F
:10344000F7E7012002BD0EB42DE9F043054604461E
:1034500000260021002004EB8102491C0F29C2F83C
:103460000401F8D3DDF84490B9F1000F06D1A06B48
:1034700040F40010A06300F052FB07E0206820F445
:1034800000102060A16B41F40021A16305F560618B
:1034900005F500670E603A683A600C98012805D17E
:1034A000099A002A14BF0121002100E003212046CF
:1034B00000F096F81021204600F076F800B10126C1
:1034C000204600F080F800B10126002038617861C4
:1034D0002A46F8614FF67F334FF0904C4FF0006E64
:1034E000002503E00D600D618B60401C0799884248
:1034F0002AD202EB401101F51061D1F80080B8F139
:10350000000FEFD5002806BF02F51068C8F800E0EC
:10351000C1F800C0E7E70D600D618B60401C0799A2
:10352000884213D202EB401101F53061D1F80080DE
:10353000B8F1000FEFD5002806BF02F53068C8F8D3
:1035400000E0C1F800C0E7E70020E8E7386920F4B0
:10355000807038610A98012808D1DFF808163963AD
:103560003A6B42F4803242F003023A63A5616FF095
:103570008042626100F0CCFADFF8EC050143A16102
:103580000D9818B1A06940F00800A061B9F1010FD1
:1035900005D1A06940F0804040F00400A0613046B1
:1035A000BDE8F0035DF810FB890141F020010161E5
:1035B000DFF8B815491E04D002699306FAD400203A
:1035C00070470320704710210161DFF8A015491EE4
:1035D00004D00269D306FAD4002070470320704754
:1035E00000F5006002681143EFE100F500608068BB
:1035F00010F0060006D0022818BF062801D10220CC
:1036000070470F20704770B50C784E78254601231F
:1036100004F00F0400EB451203FA04F4012E00F548
:103620000060DFF84C350DD1C669A4B2344302F511
:103630001062C4611068040412D400F013F844EA64
:1036400085540AE0C56945EA044502F53062C56162
:103650001068040404D400F005F823430343136006
:10366000002070BD10688C68C978C4F30A0444EA6D
:1036700081447047D06B097801F00F018B4070478F
:1036800030B50B784D7800EB431200F50060012453
:10369000012D03F00F03C56B04FA03F30FD19BB2A6
:1036A00025EA0303C36302F5106200F019F8A4B21F
:1036B00023EA0404C4611168DFF8B8040CE025EAC9
:1036C0000345C56302F5306200F00AF823EA0443BB
:1036D000C3611168DFF8A00401401160002030BD13
:1036E000C369097801F00F018C407047F8B50B7879
:1036F000DFF88864DFF8887400EB43154B78012B02
:1037000000F5006460D14B6905F51065002B2B694D
:1037100009D11F402F612E6946F400262E612B69C6
:10372000DB0CDB0422E0DB0CDB042B612B691F408C
:103730002F618B682F69D1F814C09C44ACF1010C47
:10374000BCFBF3F306EAC3463E432E612B694E6988
:10375000C6F3120633432B61CB78012B07D12B69BB
:1037600023F0C0432B612B6943F000532B61012AE6
:1037700003D10869002852D050E02B6843F004437D
:103780002B60CE78012E0BD0486900285AD0606B90
:103790000978012201F00F018A401043606351E073
:1037A000A368DC0504D42B6843F000532B6003E0CE
:1037B0002C6844F080542C6000920A784B69C968E8
:1037C0009BB200F0A5F83DE005F530652869C00C16
:1037D000C0042861286907402F618B68486940B997
:1037E0002869C3F3120303432B61286940F40020C6
:1037F0000FE01818401EB0FBF3F080B22B6906EA08
:10380000C0461E432E612B698E687043C0F31200C0
:103810001843012A286102D1C86800B16861C878DC
:1038200001280BD1A068C10504D4286840F00050DD
:10383000286003E0296841F080512960286840F041
:10384000044028600020F2BD30B50B78DFF830531B
:1038500000EB43144B78012B38D14B6904F510640D
:10386000002B236909D11D402561256945F40025F8
:1038700025612369DB0CDB0414E0DB0CDB04236132
:1038800023691D4025618B684D69AB4288BF2B467B
:103890004B61236943F40023236123694D69C5F318
:1038A00012052B43012A236101D1086928E023680E
:1038B00043F0044323604A6942B300F500600123EA
:1038C000426BFFF7D8FE1A4342631FE004F53064F1
:1038D0002069C00CC004206123691D40256148692E
:1038E00008B188684861206940F40020206120699F
:1038F0008B68C3F312031843012A206102D1C86800
:1039000000B16061206840F004402060002030BDBC
:10391000B8B5059C64B9DB1C07E000EB023751F831
:10392000045B07F58057641C3D60B4EB930FF4D340
:103930000020B2BD10B5D21C002305E000F5805474
:103940005B1C246841F8044BB3EB920FF6D3084696
:1039500010BD0A78497800EB421001290CBF00F530
:10396000106000F530600168002904D41AB10168C4
:1039700021F080410160026842F4001202600020E0
:1039800070470A7800EB42104A78012A0CBF00F514
:10399000106000F53060026822F400120260C978FD
:1039A000032918BF022903D1016841F08051016049
:1039B0000020704700F500600901026822F4FE62F1
:1039C000026001F4FE610368194301600020704742
:1039D00080B500F50060416821F0020105E080B586
:1039E00000F50060416841F002014160032000F0F1
:1039F000CFF8002002BD0146486989690840704738
:103A000000F500618869C9690840000C704700F53D
:103A100000618869C969084080B27047024602EBBC
:103A2000411000F5306002F500628068516908407D
:103A30007047024602F5006302EB411218695B6BA6
:103A400001F00F0102F51062CB40DB01926803F038
:103A50008003184310407047406900F00100704730
:103A600000F5106100F500600A68D20AD2020A600F
:103A7000826802F00602042A03D10A6842F00302B7
:103A80000A60416841F480717EE010B5036CDFF894
:103A9000F440A34200F5306002D30368002B14D435
:103AA000002303610129046944F4002404610369CB
:103AB00043F018030361036943F0C043036104D179
:103AC0004261016841F080210160002010BDDFF8F3
:103AD0009C201146491E0DD00369002BFAD50169BF
:103AE00041F001010161521E04D00169CB07FAD4F3
:103AF0000020704703207047BFFFBDFF405327FFE2
:103B000000350C00401E1BFF40420F0000DC0BFF85
:103B100018B9A06940F01000A061A1697047A06BBE
:103B200020F40020A063A06B20F48020A0637047E5
:103B3000804F1200808CF9FE20D6130060B6E5FE9F
:103B400060E3160000D3CEFE40771B00C05BB3FEDF
:103B5000C091210000CA91FE20753800E05459FE42
:103B6000E09C41000001800000383C80410D0300D2
:103B700000800010007833EC0078F3EF0000F81FAD
:103B8000FFFF07E00B30544F4160002070470000FA
:103B900038B5044600F010F814F1010F054602D0C4
:103BA00004480178641800F007F8401BA042FAD3DB
:103BB00031BD00BF0000002001484068704700BFD1
:103BC0000000002070B504008AB04BD0266804F5D0
:103BD0006F75687820B900212970204600F022FC1A
:103BE00003206870F16BC8055CBF0021216120686B
:103BF000FFF70FFC83B000F048F80EBC2068FFF719
:103C00006BFB00282CD120680021FFF708FC002165
:103C10001C2000260AE010FB01F222443C32012362
:103C200053701170D180002300F028F8626891422F
:103C3000F1D3002109E010FB01F2224402F5FE72EB
:103C400000231170537000F019F862689142F2D3AA
:103C500083B000F01AF80EBC2068FFF7F4FB18B12F
:103C600002206870012007E084F8380001216970A3
:103C70002068FFF7B4FE00200AB070BD491CD67062
:103C80009360D6605361C9B27047211D68463422E3
:103C9000FEF71ABE10B500F005FA01D1022010BDE2
:103CA00000F006FA2068FFF7B0FB10E22DE9FE4FA6
:103CB0000646306800908046FFF7CEFE002840F0B0
:103CC000DC8100F0ECF9002800F0D78100F0E7F982
:103CD000800704D53068416901F00201416106F5B1
:103CE0007170019000F0DBF9000340F1C881306889
:103CF000FFF786FE00250446002C00F0C081E00797
:103D000054D53068E9B2FFF789FE074608EB451045
:103D100000F53069F80706D50121C9F808103046CA
:103D2000294600F01AFB380729D53068D0F840A0A2
:103D300000EB451000F5306081683269012A04D03B
:103D4000DFF8CC369A4509D103E0DFF8C826924562
:103D500004D3090444BF4FF400428260304600F0AF
:103D6000A9FBDFF8B006824506D33169012903D1EA
:103D7000019A3068FFF789FE0820C9F80800F806A4
:103D800044BF1021C9F80810B80609D531690129C6
:103D900003D1019A3068FFF778FE2020C9F80800A7
:103DA000B80444BF4FF40051C9F808106D1C6408F2
:103DB000A2E7E8074DD53068E1B2FFF73AFE824648
:103DC00008EB441000F5106B5FEACA7022D5796BDE
:103DD000012004F00F029040814379630121CBF868
:103DE00008103069012806D109FB04F03044816CC9
:103DF000426C0A448264E1B2304600F06BFB3069E9
:103E0000012808BF002C05D1306D18B9019A30681F
:103E100000F004FB5FEA0A7044BF0821CBF80810E9
:103E20005FEACA6044BF1021CBF808105FEA4A601D
:103E300044BF4021CBF808105FEA8A7044BF0221DA
:103E4000CBF808105FEA0A6003D52146304600F03F
:103E500037FA641C6D08ACD100F021F9002816D5A2
:103E6000796849084900796096F8F403012806D179
:103E7000002186F8F413304600F026FC02E03046BC
:103E800000F060FB3068416901F00041416100F0E1
:103E900006F900050AD5B968C80744BF304600F0E6
:103EA0003CFB3068416901F40061416106F57174C1
:103EB00000F0F5F8C00449D57968490849007960EF
:103EC00010213068FFF770FB00204FF67F3110E0C3
:103ED00008EB401202F5106302F530629960401C55
:103EE0001D6825F400151D609160136823F400130C
:103EF000136072689042EBD3F86940F00110F861EA
:103F0000306B50B1D7F8840040F00B00C7F8840044
:103F1000786C40F00B00786409E0786940F4005058
:103F200040F02B007861386940F00B003861224680
:103F3000386820F4FE60386031693068C9B2FFF734
:103F4000A4FD3068416901F48051416100F0A7F897
:103F5000800416D53068FFF783FD3068FFF745FB16
:103F6000F06000F039FC0146F2683068D2B2FFF729
:103F7000EFF9304600F0BBFA3068416901F40051B6
:103F8000416100F08CF8C00636D53068816921F0B7
:103F9000100181610098056A05F00F0119FB01F914
:103FA000C5F3434006EB0901022801F5FE7712D163
:103FB00047F6F07005421AD0F9680098C5F30A1266
:103FC000FFF7B8FCF968C5F30A100144F960BA6953
:103FD0008018B8610BE0062809D100980822214614
:103FE000FFF7A8FCB969C5F30A104118B961306838
:103FF000816941F01001816100F051F8000707D597
:10400000304600F070FA3068416901F00801416102
:1040100000F045F8C00208D50021304600F09AFAB9
:104020003068416901F48011416100F038F8800284
:1040300008D50021304600F089FA3068416901F462
:104040000011416100F02BF8400007D5304600F028
:1040500085FA3068416901F08041416100F01FF844
:1040600040070AD531684C68600744BF304600F00D
:1040700079FA306841680C434460BDE8F78F08F571
:10408000006700F00CF840034FF01C097FF5E4AE28
:104090003068FFF7BCFC05460024002DDBE63068E5
:1040A000FFF7A9BC044694F8BC232068012A704796
:1040B000A36A0122012B84F8BC2306D1A269012A3C
:1040C00003D0826B42F480328263FFF781BC002010
:1040D00084F8BC0310BD10B500F00BF801D102202C
:1040E00010BD00F00BF884F838102068FFF762FC70
:1040F000EDE7044694F8BC0301287047012084F8DA
:10410000BC03704738B5054601F00F041C2044433A
:1041100028190C0647BF00F13C04012000F5FE748D
:10412000002001F00F0160702170A260E3706078E0
:1041300008B12178E180022B04BF0020207195F89E
:10414000BC03012801D1022032BD012085F8BC0347
:1041500021462868FFF757FA7CE010B5044601F0C5
:104160000F0200F09FF800F090F801D1022010BD7E
:1041700000F092F8FFF784FAA9E738B500F026F8C6
:1041800003F5FE73002500F028F808BF1A6110E05F
:1041900001F00F011C2251430844D0F8140270476B
:1041A00038B500F013F83C33012500F016F808BFCD
:1041B0001A61026900680029D2B2194602D1FFF7DC
:1041C00043FB01E0FFF792FA002032BD1C4601F0EC
:1041D0000F051C235D43431970475C6101F00F011B
:1041E00000249C61DA605D7019700469012C7047CD
:1041F00038B505460C46696804F00F00814201D2CB
:10420000012032BD1C21220605D54843284400F177
:104210003C01012005E011FB04F1681800F5FE7176
:104220000020487001228A7004F00F040C7095F889
:10423000BC03012801D1022032BD85F8BC232868C7
:10424000FFF787FB34B92969286805F57172C9B28F
:10425000FFF71BFC002085F8BC0332BD10B50446F7
:1042600001F00F026068904201D2012010BD00F001
:1042700019F80023837000F008F801D1022010BD66
:1042800000F00AF8FFF77DFB21E701F00F01017054
:1042900094F8BC1301297047012284F8BC2301461D
:1042A000206870471C204243A0180A0603D53C3002
:1042B00001234370704700F5FE7000224270704782
:1042C0002DE9F8460E4681461C207043484400F113
:1042D0003C05A8696969D9F800A0814238BF01206E
:1042E00039D3AF68081A874288BF0746FF1CBF084A
:1042F0000AEB46126869A96902F5106293699BB2DC
:10430000BB421AD3814218D2B8B1F2B2AC68411A9A
:10431000D9F81000C0B200908C42504688BF0C46BD
:10432000E968A3B2FFF7F4FAE8682044E860E71C04
:10433000A9696418BF08AC61DAE781420AD30AF5BB
:1043400000620121506B06F00F0601FA06F620EA22
:10435000060656630020BDE8F286F8B505460C4611
:104360002F68396C07EB441707F530674FF40040AE
:10437000BA682B69012B39D15FEA027C05F57176A9
:10438000244B0BD5994202D3110448BFB86028468C
:1043900000F090F800F040F808202CE05FEA826C12
:1043A00048BF202027D412F0280F2ED1994201D3E4
:1043B000110420D41C206043284400F501700168DA
:1043C0003A69C2F31202891A0161026841680A441B
:1043D0004260E1B2284600F073F8002C04BFD5F823
:1043E0001002002811D100F017F80EE0084B994296
:1043F00007D1110401D5B86007E0900644BF202121
:10440000B960E1B2284600F05BF80020F2BD000080
:104410000A31544F0B30544F286832460121FFF7C0
:1044200034BB000038B586B0044601A8142100F062
:104430001FFA2468B4F1A04F3AD10020624C634DBA
:1044400000900022216841F0010121604FF40071C9
:10445000206800F001000090009801910292039200
:1044600001A9284600F008FA0022039204924FF4B2
:10447000E0500221019002910A22059201A92846EA
:1044800000F0FAF9606840F080006060002100915F
:104490000022606940F480406061606900F48040FF
:1044A00000900098432000F0F5FA432000F00FFB45
:1044B00007B030BD00F57171D0F8040400F07BBB8B
:1044C0000B461C225343C218D0F80404D2F8082229
:1044D00000F09BBB0B461C225343C218D0F80404C7
:1044E000926C00F0D3BBD0F8040400F060BC38B587
:1044F00004460125E06808B9002503E0022818BF3A
:1045000000F028FDD4F80404294600F03FFCD4F85C
:104510000404BDE8324000F010BC10B50446D4F8E5
:10452000040400F036FC206800F56060016841F08A
:1045300001010160206A20B12548016841F00601AF
:10454000016010BDD0F8040400F02BBCD0F80404C6
:1045500000F03BBCD0F8040400F035BCD0F80404F3
:1045600000F035BCD0F8040400F033BC10B501787D
:1045700039BB184CC4F80404C0F898424FF0A0406E
:1045800020600421002002222061E061206260623C
:10459000E06220636160E260A2612046FFF712FBE7
:1045A00008B100F0D7FC8021204600F089F84022B5
:1045B0000021204600F063F880220121204600F00F
:1045C0005EF8002010BD00003038024000000240BC
:1045D00010ED00E00013002080B5D0F89802FFF73E
:1045E00059FBBDE8024041E010B51C461346D0F827
:1045F00098022246FFF786FDBDE8104036E080B500
:10460000D0F89802FFF7A9FDEBE780B5D0F8980243
:10461000FFF7EEFDE5E780B5D0F89802FFF71EFE44
:10462000DFE7D0F8982201F07F031C204343D01825
:10463000090602D590F83E00704790F8FE017047D9
:1046400080B5D0F89802FFF746FDCAE780B5D0F8EC
:104650009802FFF7A5FDC4E780B5D0F89802FFF7F0
:104660008CFDBEE7D0F89802FFF792BD014600200E
:1046700021B1022901D1012070470220704770B595
:104680000068436A0C0003D143EA0242826215E0EB
:10469000846A03EB1443002406E000EB8505641CE8
:1046A000D5F8046103EB1643E5B24E1EB542F4D3D0
:1046B00000EB810043EA0242C0F80021002070BDF7
:1046C0000068416200207047704700002DE9F0410A
:1046D00004000F4678D0474E306800F00F00B84213
:1046E00002D200F073F86FD12068434D810712D5D4
:1046F000400703D5A96841F4E051A960207801077B
:1047000003D5A86840F46040A860A968A06821F0BB
:10471000F0010143A9602178C8074DD560680128E0
:1047200002D129688A0305E0022818BF032803D1B3
:1047300029688A0103D447E029688A0744D5A96813
:10474000890840EA8100A860FFF736FA8046A86829
:10475000616800F00C00B0EB810F2DD0FFF72CFA50
:10476000A0EB080041F289318842F0D3032021E018
:104770002078410705D5AA68E06822F4E052024398
:10478000AA602178080706D5A968206921F460414C
:1047900041EAC001A96000F03BF8AA681749184B2C
:1047A000C2F30312895CC84018601648006800F024
:1047B000DBFB0020BDE8F081306800F00F0087428D
:1047C000D6D200F003F8D3D00120F3E73770316878
:1047D00001F00F01B9427047094800687047084866
:1047E000094A006813680949C3F38222FFE7895C1C
:1047F000C8407047003C024000380240407000084A
:104800000C000020080000200838024060710008F9
:1048100030B5144C606800F00C00042802D0082861
:1048200002D01DE0104830BD2268206800234102FC
:1048300002F03F0204D525680B49C5F3881003E058
:1048400020680A49C0F38810A1FB0001FEF748F870
:104850002168C1F30141491C4900B0FBF1F030BDB2
:10486000024830BD0438024000127A000024F400EF
:10487000002200F099BB00002DE9F84F0D464FF0E3
:1048800000086C490F22012304462E6803FA08F041
:1048900000EA0609814540F0C0804FEA480C032633
:1048A00006FA0CF66FEA060E6E68012E18BF022E8D
:1048B00003D0112E18BF122E11D1A668EF680EEA90
:1048C000060607FA0CF73E43A660666826EA000073
:1048D0006E68C6F3001606FA08F630436060E068BA
:1048E000AE680EEA000006FA0CF63043E0604FEACC
:1048F00088006E68022E18BF122E12D14FEAD80619
:1049000004EB860600F01C07D6F820A002FA07FB8D
:104910002AEA0B0AD5F810B00BFA07F747EA0A079C
:10492000376226680EEA06072E7906F0030606FAB5
:104930000CF63E4326606E68F6006ED500260096A3
:104940004FEA980C0E68DFF8F0E046F480460E60FF
:1049500000F00C000E6806F480460096009E5EF89B
:104960002C7002FA00F627EA0606344FBC4208BF54
:10497000002722D0324FBC4208BF01271DD0314F43
:10498000BC4208BF022718D02F4FBC4208BF0327E4
:1049900013D02E4FBC4208BF04270ED02C4FBC4270
:1049A00008BF052709D02B4FBC4208BF062704D0FB
:1049B000294FBC420CBF0727082707FA00F03043F5
:1049C0004EF82C006FEA090C244806680CEA060E23
:1049D0006E68F70348BF49EA0E0EC0F800E046686B
:1049E0000CEA060E6E68B70348BF49EA0E0EC0F81F
:1049F00004E086680CEA060E6E68F70248BF49EAD2
:104A00000E0EC0F808E0C6680CEA060E6E68B60224
:104A100048BF49EA0E0EC0F80CE008F10108B8F1F1
:104A20000F0F7FF632AFBDE8F18F02B90904816143
:104A3000704700004438024008380140000002403E
:104A40000004024000080240000C02400010024036
:104A50000014024000180240001C0240003C0140CB
:104A60000901020002D4294881547047284B02F002
:104A70000F021A4402F8041C7047264B19684FF6BF
:104A8000FF020002114000F4E0600843224908439D
:104A90001860704738B51F4B1C68C4F30223C3F17C
:104AA0000704052C28BF04241D1D072D34BF002337
:104AB000DB1E012505FA04F4641E2140994005FA25
:104AC00003F35B1E1A401143BDE83440C8E7010000
:104AD00007D4012200F01F01104B8A40400943F81F
:104AE0002020704710B5401EB0F1807F01D3012017
:104AF00010BD0B4C60600F214FF0FF30FFF7B0FF8F
:104B00000021A16007202060002010BD00E400E02B
:104B100018ED00E00CED00E00000FA0500E100E017
:104B200010E000E038B558B9B0A000F057FA00BF67
:104B3000B0A000F053FA14A000F050FA022032BDE9
:104B400000F51D74A3690BB10025A56101B1616178
:104B5000012121700270FFF709FD002032BD000025
:104B600080B5002211B1C0F88C120AE09FA000F0BD
:104B700035FA00BFA5A000F031FA03A000F02EFA2C
:104B80000222104602BD00000A00000080B5FFF7B7
:104B900023FD002002BD10B5D0F88C2202241AB1EA
:104BA0001268904700B90024204610BD80B5D0F8A7
:104BB0008C22536816E138B5044604F52075284662
:104BC00000F004FC04F51B7001210160428B017DA3
:104BD000426011F01F0003D002280BD005D30EE075
:104BE0002946204600F00EFA0DE02946204600F046
:104BF000B3FA08E02946204600F0D5FA03E001F0B8
:104C0000800100F040F8002032BD38B5044610465F
:104C10000A0004F51B7329D1196803291ED104F574
:104C2000A6714A680D68AA420BD2AD1A0D60954272
:104C300038BF2A46014692B2204600F024FC0020EC
:104C400032BD196A086928B1187A032802D10969A6
:104C500020468847204600F01EFCF0E70529EED1EB
:104C600000201860002100F00EF8E8E71A6A906949
:104C700030B1187A032803D1926920469047DEE7C5
:104C8000022032BD80212046FFF7BFBC38B5044664
:104C90000800134604F51B7543D12868022833D158
:104CA000226A616A914207D2521A2262194692B26E
:104CB000204600F0D6FB11E0E269B2FBF1F001FB07
:104CC000102090B98A4210D3686882420DD2002227
:104CD0000021204600F0C5FB002068600023002270
:104CE00000212046FFF7B8FC14E0296AC86828B103
:104CF000287A032802D1C96820468847FFF7C2FFF7
:104D0000204600F0CFFB05E0042818BF002801D1A1
:104D1000FFF7B8FF287B012804BF0021297300207A
:104D200032BD2A6A506930B1287A032803D152690A
:104D300020469047F3E7022032BD38B504464023B1
:104D400000220021FFF750FC04F5A270012140224F
:104D50000160C2604023002280212046FFF744FC0E
:104D60000120402104F51B72A061616210720021D4
:104D7000116061600025506A156128B1126A61688E
:104D80005368C9B220469847002032BD0174002004
:104D9000704700F51D7004220178417002700020F8
:104DA000704700F51D70417801700020704780B594
:104DB00000F51D710A78032A03D18969C96901B117
:104DC0008847002002BD0020704700207047002067
:104DD000704780B500F51D72012313709269416818
:104DE0005368C9B29847002002BD00004552524F97
:104DF000523A2000496E76616C6964204465766998
:104E000063652068616E646C65000000496E7661C0
:104E10006C696420436C6173732068616E646C65B7
:104E20000000000070B500F045FB00F032F800F023
:104E30005BFB00F029FC00F0CFFC00F03BFD00F034
:104E40002CFC00F046FD00F0E9FD00BF42A03D4C07
:104E50003D4E00F0C3F83AA53046FDF7F9FC82B2AA
:104E6000002AF9D03146204600F002FE294600F023
:104E70000EFE2046FDF7ECFC81B2204600F039FE24
:104E80004021304600F04CFE4021204600F048FE14
:104E9000E2E780B596B00AA83021FFF7E9FC05A843
:104EA0001421FFF7E5FC01A81021FFF7E1FC002029
:104EB00000904FF480332548016841F08051016033
:104EC0000021006800F08050009000982048009178
:104ED000026842F4804202600122006800F48040CF
:104EE00000900AA800990A9202214FF480021091C2
:104EF000119208214FF4A8721291139202210722F5
:104F00000B931491159200F00FFE022106910022DE
:104F100007920F204FF4A051059008914FF4805252
:104F20000992052105A8FFF7D1FB01200190C021BE
:104F300002220291039201A800F088FF17B000BD81
:104F40000D0A0000000B0020000300204038024042
:104F5000007000407047000020646562756720742F
:104F6000657374200A0D000038B50D4D0D4B2A787D
:104F700004464FF47A711868B1FBF2F2B0FBF2F01C
:104F8000FFF7B0FD50B9102C08D2002221464FF097
:104F9000FF30FFF77FFDAC60002032BD012032BD45
:104FA000000000200C00002000B500BF1300964652
:104FB0009446103928BFA0E80C50FAD85FEA417C2B
:104FC00028BF0CC048BF40F8042BC90728BF20F8F1
:104FD000022B48BF00F8012B00BD00000EB4C0B585
:104FE000024603A800210190009101AB0121044871
:104FF00078440C30FCF7F6FB06BC5DF810FB00BFF4
:1050000023210000F8B500F0C8F804F51D7608D09B
:10501000202818BF402850D1B2699368204698478D
:1050200095E06878092848D8DFE800F06E86478068
:10503000470905475C25204600F04AF987E0A88823
:10504000002804BFE888002837D16F88802F34D229
:105050003078032807F07F072FD0B77039462046F5
:10506000FFF7EEFA00F031F9002F07BF0121317090
:10507000022030706BE0374F688838703978084606
:1050800002281AD23278022A1AD0032A23D131B93F
:105090000220307061602046FFF788FD55E06168AE
:1050A000884252D0C9B22046FFF780FD397861604E
:1050B0002046FFF770FD022847D100F084F946E052
:1050C000002942D06060032030702046FFF763FD66
:1050D0000228F2D039E000F076F939782046FFF75F
:1050E00065FD34E0E8880128E7D13178491E0129BF
:1050F00004D9891EE1D10122211D13E00020A06006
:10510000012204F108010DE03078401E0228D4D8B5
:10511000EA88022AD1D1B068002100B10221E16001
:1051200004F10C01204600F094F910E06888012891
:105130000DD10121B16008E03078401E0228BCD8B2
:105140006A88012A03D10020B06000F0BEF8002078
:10515000F2BD00005C20002038B500F01EF81CBF36
:105160002028402815D104F51D721078401E022811
:105170000FD82B79022B0CD292699368204698475E
:105180000146E888002808BF002904D100F09DF8F6
:1051900001E000F019F9002032BD0D4604462878E0
:1051A00010F060007047F8B50446084604F51D731A
:1051B0000278017912F0600509D0202D18BF402D2A
:1051C0006AD19A69936801462046984767E002F0E1
:1051D0006002202A06D19A69936801462046BDE8FC
:1051E000F440184742788AB3012A12D0032A53D1D7
:1051F0001B78022B13D0032B4ED142881ABB0029F7
:1052000018BF80291FD0C088E8B92046FFF7FDF9F4
:1052100019E01A78022A02D0032A0CD03CE00029B7
:1052200018BF802938D02046FFF7EFF980212046AB
:10523000FFF7EBF933E0408888BB11F07F0F1CBF0C
:105240002046FFF7E8F900F040F828E0142201F0CA
:105250007F051B7855436619022B06F5A07502D011
:10526000032B10D018E0002918BF802914D108069C
:1052700048BF06F114050020286002222946204676
:1052800000F0E7F80BE001F00F0312FB03F20F064A
:10529000224406D5926972B9014600F095F80020C3
:1052A000F2BDD2F84421002AF6D0002918BF802987
:1052B00004D10020E0E706F11405F6E72046FFF7E9
:1052C000B0F90028D8D00120D6E7204600F0E3B896
:1052D00038B50D4604466888030A012B04F522728E
:1052E00008D0022B23D0032B2ED0062B58D0072B0F
:1052F0005DD065E01268207C136869469847BDF868
:10530000001079B1E98879B1BDF80010EA889142BE
:1053100088BF1146ADF800100146BDF800202046B8
:1053200000F097F8E88808B9FFF7CFFF31BD207C7F
:1053300051680028684604D1896A88470222427071
:10534000DDE7C96A8847F9E7C0B2052838D8DFE841
:1053500000F003090F151B211268207C5368694671
:105360009847CCE71268207C936869469847C6E75F
:105370001268207CD36869469847C0E71268207C91
:10538000136969469847BAE71268207C53696946F1
:105390009847B4E71268207C936969469847AEE75E
:1053A000207C68B951684A6B68469047A7E7207C23
:1053B00030B951680A6B68469047072141709EE7F3
:1053C00000F002F831BD2946204614E010B50A78F5
:1053D00002704B7843708A78CB7802EB03244480C8
:1053E0000A794B7902EB032484808A79C97902EB2C
:1053F0000123C38010BD10B504468021FFF705F9D5
:105400002046BDE810400021FFF7FFB800280B46FA
:1054100000D1704770B50146002400E0641C11F80B
:10542000015B002DFAD12406E40DA41C1480117830
:10543000197003225A70022207E010F8011BD4B23F
:10544000521C1955D6B2521C9D5501780029F4D131
:1054500070BD80B513460222C0F86C22C36103629E
:1054600001E080B513460A460021FFF7EFF800205F
:1054700002BD80B513460322C0F86C2200F5A47269
:105480001360536001E080B513460A460021FFF720
:10549000E3F8002002BD80B50421C0F86C1200239F
:1054A0000022E1E780B50521C0F86C12002300223C
:1054B000ECE7000080B50B48016841F40071016021
:1054C000026842F480620260016841F48071016008
:1054D0000320FFF7D2FA0020FFF746FD00F070FD31
:1054E000002002BD003C02402DE9F04186B0684634
:1054F0001421FFF7BDF900245548564F564EDFF8EA
:105500005C8105944FF210050168554C41F0100183
:105510000160026802F010020592002205990592CE
:10552000036843F004030360016801F0040100F024
:105530009DF843F080030360016801F0800100F0F2
:1055400095F843F001030360016801F0010100F0E8
:105550008DF843F002030360016801F00201059138
:10556000059905920821036843F008030360006869
:1055700000F00800059005982046FFF756FA012232
:1055800001213846FFF751FA002202213846FFF781
:105590004CFA002229463046FFF747FA082100F06E
:1055A0006AF82046FFF768F9032100F064F83846EE
:1055B000FFF762F900220292039208200221009074
:1055C00001910522049269463846FFF755F90120FA
:1055D0000021009002916946224F23480197FFF76E
:1055E0004BF9042000210090019102914046694648
:1055F000FFF742F94FF480600090022100220292EE
:10560000039201910522049269464046FFF734F95E
:1056100001200190002202920392009569463046D3
:10562000FFF72AF9202000210090019102913046D5
:105630006946FFF721F902210091019700210291AB
:1056400020466946FFF718F906B0BDE8F081000072
:105650003038024000080240000C024000040240C2
:105660000010024000001210000002400591059950
:105670000592036870470091012200210291039175
:1056800001926946704700004A4A4B484B4980B531
:1056900000F00CF800B117E001BD464A48484949FE
:1056A00080B500F003F800B10EE001BD42600023B8
:1056B0004FF4804201608360C36002614361836193
:1056C000C361036200F09ABCBDE80140FFF742BC31
:1056D00038B586B0044668461421FFF7C9F820683B
:1056E000364D394CA8421FD1002005901222216866
:1056F00041F0020121604FF41071206800F00200B7
:1057000005900598314800910192012102910022F3
:1057100000F04AF800200590216941F40011216150
:10572000206900F400103BE0264988423AD100206D
:105730000590216841F0040121600021206800F0FB
:1057400004000590059805914FF40071226842F01D
:10575000010222601222206800F0010005900598E5
:105760001B480091019201210291032200F01CF8D4
:1057700012210191012202924FF4807003210090C6
:1057800003910422049269461248FFF775F800203D
:105790000590216941F400012161206900F40000B5
:1057A0000590059807B030BD042104910392694625
:1057B000FFF762B8A0860100AC1E00200054004034
:1057C000001F0020005C004030380240000402400E
:1057D000000802400000024080B5304830490160B6
:1057E00000224FF40071416001618260C2608261F9
:1057F000C26102622B49416100F0A8FC18B1BDE80A
:105800000140FFF7A7BB01BD38B586B0044601A82B
:105810001421FFF72DF82468214DAC423BD1002024
:10582000009000222048016941F4004101610169B2
:1058300001F40041009100990092036843F00103D4
:105840000360016801F001010091009900921021AC
:10585000036843F0040303600222006800F00400C0
:105860000090009811480191029200210391049147
:105870000621059101A9FEF7FFFF00220392049281
:105880004FF4A4500221019002910622059201A931
:105890000748FEF7F1FF07B030BD0000F41F0020FD
:1058A000003C004000770100303802400000024018
:1058B0000008024080B55148514901604FF482729E
:1058C000426000F01CF8C36100F013F800B120E062
:1058D00001BD80B54B484C4901604FF482721021E4
:1058E0004260C16100F00BF800F003F800B110E075
:1058F00001BD036243628362C16200F061BD0023A7
:105900004FF400720A218360C360036143618261C6
:105910007047BDE80140FFF71DBB10B586B00446D7
:1059200068461421FEF7A4FF2168354C3748A14290
:1059300021D100210591426942F480524261002246
:10594000416901F48051059105990592E0210368B0
:1059500043F0010303600222006800F0010005909B
:1059600005982B4800910192002102910391052195
:10597000049169463DE0244A91423CD100210591C1
:10598000026942F4804202610022016901F480410F
:10599000059105990592036843F0040303600168CB
:1059A00001F004010591059905920421036843F073
:1059B000020303600222006800F0020005900598CF
:1059C00014480091019200210291032205210491C3
:1059D00003926946FEF750FF0221019100224FF425
:1059E000204002920321009003910522049269460F
:1059F0000948FEF741FF06B010BD0000FC1D002065
:105A000000300140541E0020003800403038024071
:105A100000000240000802400004024010B5104C93
:105A2000104900222046FFF77DF808B1FFF792FAEF
:105A30000D492046FFF794F808B1FFF78BFA0B49A0
:105A4000204600F023FE08B1FFF784FA2046FFF756
:105A50009DF818B1BDE81040FFF77CBA10BD00BF3B
:105A600008170020300100201C0000202001002029
:105A700001B55AB111F8013B521E00F8013B03B1C8
:105A8000F8D111001CBF002200F040FE01BD03460A
:105A900000E05B1C1A78002AFBD111F801CB83F8D7
:105AA00000C013F8012B002AF7D1704738B51A4C03
:105AB0001A4D002205F50061204600F0EEFD294652
:105AC000204600F0F2FD002032BD0020704700208B
:105AD000704770B504460D460F4E2146304600F023
